:100000000C9462000C948A000C948A000C948A0070
:100010000C948A000C948A000C948A000C948A0038
:100020000C948A000C9490050C948A000C948A001D
:100030000C948A000C948A000C948A000C948A0018
:100040000C9473140C948A000C94D3060C948A00BC
:100050000C948A000C948A000C948A000C948A00F8
:100060000C948A000C948A000000000025002800EF
:100070002B000000000023002600290000000008DB
:10008000000201000003040700000000000000005F
:1000900000000000240027002A00010204081020AC
:1000A000408001020408102001020408102004040A
:1000B0000404040404040202020202020303030310
:1000C0000303542311241FBECFEFD8E0DEBFCDBF02
:1000D00014E0A0E0B1E0E2ECFEE402C005900D9275
:1000E000A831B107D9F726E0A8E1B4E001C01D921C
:1000F000A037B207E1F710E0C2E6D0E004C02197D4
:10010000FE010E945324C136D107C9F70E94711A1B
:100110000C945F270C940000CF93DF931F92CDB710
:10012000DEB76983DC01ED91FC910280F381E02D63
:1001300041E050E0BE016F5F7F4F09950F90DF9166
:10014000CF910895DC01ED91FC91048CF58DE02DAB
:10015000099591E089270895862F089581E08627E3
:1001600008950895AF92BF92CF92DF92EF92FF92DF
:100170000F931F93CF93DF9300D0CDB7DEB7382F07
:10018000192FF62E6A01022F682F81ED94E03A8331
:1001900079830E944D09612F81ED94E00E944D0901
:1001A0006F2D81ED94E00E944D097981672F81EDDB
:1001B00094E00E944D093A81002311F08BEF01C0B9
:1001C0008CEF830F760110E0A82EB12CC7018C199B
:1001D0009D098A159B054CF4F70161917F01162753
:1001E00081ED94E00E944D09F1CF002389F0612F49
:1001F00081ED94E00F900F90DF91CF911F910F91BF
:10020000FF90EF90DF90CF90BF90AF900C944D098E
:100210000F900F90DF91CF911F910F91FF90EF9072
:10022000DF90CF90BF90AF900895EF92FF920F9321
:100230001F93CF93DF931F92CDB7DEB77C018B0165
:1002400061E0FC01828149830E94C113F801498168
:1002500050E0CF01801B910B8417950740F48191EA
:100260009091C00095FFFCCF8093C600F2CF8091A3
:10027000C00086FFFCCF80E48093C0001092C000D5
:1002800060E0F70182810F90DF91CF911F910F9174
:10029000FF90EF900C94C113CF9360E08FE00E9429
:1002A000C113C0916E048EE00E949813AC01682FB8
:1002B000EC2FE695E695E695F0E0E159FB4F90814D
:1002C0008C2F8770292F30E0082E02C03595279596
:1002D0000A94E2F72170332755272417350709F1CF
:1002E000662371F041E050E060E070E004C0440F2C
:1002F000551F661F771F8A95D2F7492B40830EC082
:1003000041E050E060E070E004C0440F551F661FFC
:10031000771F8A95D2F740959423908383E7809343
:100320000001CF5FC0936E04CF91089508958CBDF6
:100330009DBD08958F929F92AF92BF92CF92DF9210
:10034000EF92FF920F931F93CF936C015B017A01A1
:10035000FC01C485C43041F481E090E0F601938350
:10036000828380E090E04EC08A014130584010F016
:1003700000E018E080E590E00E9497018C2F0E9439
:10038000551A4C0163E070E08C2F0E94BB16873138
:1003900011F08C3121F48016910660F302C000E068
:1003A00010E080E590E00E9497019801A50160E0CF
:1003B00070E08C2F0E94F01960E270E08C2F0E9498
:1003C000830C62E070E08C2F0E94BB1684FD10C08D
:1003D00063E070E08C2F0E94BB16811104C08C2F4B
:1003E0000E942C0CB9CF80E590E00E949701E9CFE4
:1003F00040E162E070E08C2F0E94B116012B09F4FD
:10040000ABCFC701CF911F910F91FF90EF90DF907D
:10041000CF90BF90AF909F908F900895CF92DF9232
:10042000FF920F931F93CF93DF93FC012485243019
:1004300009F077C06A01EB018C01F12C8F2D0E942D
:10044000400C811103C0F801F48607C08B7F88310E
:10045000D1F3F394F4E0FF12F1CFF80184858430F6
:1004600009F45FC020910201309103012F5F3F4FDB
:1004700011F420E030EC309303012093020140910D
:1004800002015091030120E061E00E947915F8011A
:10049000F4848A818F3F51F48B818F3F91F48C815A
:1004A0008F3F79F48D818F3F61F438C0811109C08D
:1004B0008B81811106C08C81811103C08D818823BD
:1004C00069F1C114D10451F180E590E00E949701D7
:1004D000BE016E5F7F4F8F2D90E0982F882744E0FC
:1004E00050E0845F9B4F0E942815B6018F2D0E941B
:1004F000E11664E070E08F2D0E94830CC8010E9419
:10050000F216873189F061E070E080E090E00E94AF
:100510002D14C8010E94F2168111F0CF84E0F80179
:10052000848780E090E002C081E090E0DF91CF918D
:100530001F910F91FF90DF90CF9008952F923F92DF
:100540004F925F926F927F928F929F92AF92BF92E3
:10055000CF92DF92EF92FF920F931F93CF93DF938F
:10056000CDB7DEB765970FB6F894DEBF0FBECDBF2F
:100570007C016B013A01FB0120E080E090E06AE041
:100580003191332309F140ED430F4A3080F4689FE5
:10059000A001699F500D1124CA01C097830F911DBE
:1005A00037FD9A958F3F910559F350F313C03E32B2
:1005B00089F4233079F0D301A20FB11D12968C93E8
:1005C0002F5F80E090E0DCCF233021F4F3018583BE
:1005D00081E021C0F701428153816481758180915E
:1005E000C7049091C804A091C904B091CA044817E7
:1005F00059076A077B0709F49EC10E9467148701A7
:10060000085F1F4F6F7077277C5FC8010E943A1602
:10061000813019F080E090E0F3C18AEC91E09A8398
:100620008983F70182819381A481B5818B839C8327
:10063000AD83BE8345E350E0BE016F5F7F4FC801CD
:100640000E949B09892B19F4C12CD12C6FC10E94E7
:100650006714F701778366837627672776277A837F
:10066000698342E050E0BE016F5F7F4FC8010E9486
:100670006B0A81E090E09E878D8742E050E0BE01EA
:10068000635F7F4FC8010E946B0A80E091E09E8704
:100690008D8742E050E0BE01635F7F4FC8010E943A
:1006A0006B0A1E861D8642E050E0BE01635F7F4FED
:1006B000C8010E946B0A42E050E0BE01635F7F4FB9
:1006C000C8010E946B0A42E050E0BE01635F7F4FA9
:1006D000C8010E946B0A5601F5018081882311F13F
:1006E000F6015F018191811115C045018C189D08AB
:1006F0001814190494F48F8641E050E0BE01615F44
:100700007F4FC8010E946B0AA401B601C8010E9474
:100710006B0A03C08E3229F7E8CF6501FFEFCF1ACD
:10072000DF0ADACF1F8641E050E0BE01615F7F4FF4
:10073000C8010E946B0AC12CDD24D394DE86CD86CD
:1007400042E050E0BE01635F7F4FC8010E946B0A28
:10075000DE86CD8642E050E0BE01635F7F4FC80178
:100760000E946B0AC8010E946309892B09F46CCFAF
:1007700063E0A62EB12CF2E06F0E711C0E9467148C
:100780001B012C01C8010E94D30B18161906A4F0F6
:100790000E946714DC01CB0182199309A409B509F1
:1007A00089389341A105B105D0F462E370E080E09F
:1007B00090E00E942D14E6CFF701428153816481BD
:1007C0007581808D918DA28DB38D481759076A0769
:1007D0007B0741F4848D958DC59721F406C02FEFDA
:1007E0003FEF9AC02EEF3FEF97C0F70181A192A192
:1007F0000C970CF4A6C04CE050E0BE016F5F7F4F39
:10080000C8010E948B0B8B8190E0982F88272C8148
:10081000822B9A8B898B298130E0322F22274A81C3
:10082000242BF701468157814217530709F086C0F0
:1008300097FF84C08F709270892B09F0DEC0CF8043
:10084000D12CDC2CCC248885C82AC114D10409F40D
:10085000D1C0812C912C8D8190E0982F88272E81FA
:10086000822B8816990608F46FC0812C912C41E0E8
:1008700050E0BE016D5E7F4FC8010E948B0B8B89DB
:10088000982F907C09F093C0811186C08B898111CB
:10089000EECF42E050E0BE01615F7F4FC8010E9491
:1008A0008B0B42E050E0BE01635F7F4FC8010E94A6
:1008B0008B0BC8010E94AA0BC8010E94AA0BC80199
:1008C0000E94AA0BC8010E94AA0B42E050E0BE01A0
:1008D0006F5E7F4FC8010E948B0B8F8598898115B1
:1008E000914009F069C02D853E85322723273227A4
:1008F0002130310509F060C089899A8981159440B9
:1009000009F075C044E050E0B301C8012C8B3D8B69
:100910000E948B0B2C893D896901F1E0AF1AB10867
:1009200029F02FEFC216D20609F428CFC8010E9481
:100930002516C60165C08EEF9FEF62C02CEF3FEF1A
:10094000EBCF2DEF3FEFE8CF41E050E0BE01635F1A
:100950007F4FC8010E948B0B8D85811113C08D853F
:100960008111F2CFC8010E94AA0BC8010E94AA0BF4
:10097000C8010E94AA0BC8010E94AA0BFFEF8F1AA0
:100980009F0A69CF8D859FEF980F9D87882339F344
:10099000C8010E94AA0BF6CF8B899FEF980F9B8B03
:1009A000882309F473CFC8010E94AA0BF5CFC801B0
:1009B0000E94AA0B1B8A6ACF412C512C89899A89E3
:1009C0009827892798274816590638F4C8010E94A5
:1009D000AA0B8FEF481A580AF1CFEFEF8E1A9E0A32
:1009E0008C149D0409F043CF26EF3FEF95CF27EFFE
:1009F0003FEF92CF2AEF3FEF8FCF2BEF3FEF8CCF20
:100A000065960FB6F894DEBF0FBECDBFDF91CF91D4
:100A10001F910F91FF90EF90DF90CF90BF90AF901C
:100A20009F908F907F906F905F904F903F902F900E
:100A30000895CF92DF92EF92FF920F931F93CF937F
:100A4000DF93CDB7DEB7AF970FB6F894DEBF0FBE1A
:100A5000CDBF7C016A010AEC11E01A8309831C8670
:100A60001B8688EE93E0A0E0B0E08D879E87AF877D
:100A7000B88B84EA91E09A878987188F0F8B198E3B
:100A80001A8E1B8E1C8E84E089A31DA30CA31EA2AC
:100A90001FA218A619A68091BF049091C004A0912E
:100AA000C104B091C2048CA79DA7AEA7BFA78B833A
:100AB0009C83AD83BE8318861F82AE014C5D5F4F61
:100AC000CE0101960E949E0281309105B1F4D701BA
:100AD000ED91FC910484F585E02D1BA70AA78EA15A
:100AE0009FA1A8A5B9A58CA79DA7AEA7BFA7A60142
:100AF000BE01665D7F4FC7010995AF960FB6F894AA
:100B0000DEBF0FBECDBFDF91CF911F910F91FF9040
:100B1000EF90DF90CF9008950C94F8260C94F02677
:100B20001F920F920FB60F9211242F933F934F9362
:100B30005F936F937F938F939F93AF93BF93CF9365
:100B4000EF93FF93C0916D04C33011F461E010C0C6
:100B5000C43011F1C53019F1C93011F461E003C09E
:100B6000CA3019F460E081E104C0CB3029F460E0C0
:100B700080E10E94C11315C0CC3098F0809122040E
:100B800020E1829FC001112409962C2F30E08217AA
:100B900093073CF0C0FD03C061E08FE0EACF0E9404
:100BA0004C01CF5FC0936D042091220480E1289F07
:100BB00090011124275F3F4F8C2F90E028173907B1
:100BC000BCF410926D0410926E0460E080E10E940B
:100BD000C11360E08FE00E94C11360E081E10E94D8
:100BE000C11380910001833719F489E680930001D5
:100BF0008091B200805B8093B200FF91EF91CF9122
:100C0000BF91AF919F918F917F916F915F914F9124
:100C10003F912F910F900FBE0F901F90189586E275
:100C200090E00E948E058093220481508E3328F03C
:100C3000109222041092B10008951092B00084E046
:100C40008093B10081E08093700080E58093B200D2
:100C500008956F927F928F929F92AF92BF92CF92A0
:100C6000DF92EF92FF920F931F93CF93DF9300D009
:100C700000D000D0CDB7DEB76C015B014A01122F66
:100C80000023B1F1E12CF12C8AEC682E81E0782E62
:100C9000F701ED5DFB4F8581882311F18481801779
:100CA000F8F030812181928183814091E504509157
:100CB000E6047A8269823B832C839D838E83BE0106
:100CC0006F5F7F4F81ED94E00E949B09212FA4016B
:100CD000B501C6010E94B20081ED94E00E94630953
:100CE00086E0E80EF11C8CE3E816F10489F625C0D5
:100CF0004091E5045091E6048AEC91E09A8389835F
:100D00008091E1049091E204A091E304B091E404A5
:100D10008B839C83AD83BE83BE016F5F7F4F81ED6C
:100D200094E00E949B09212FA401B501C6010E94F5
:100D3000B20081ED94E00E94630926960FB6F89404
:100D4000DEBF0FBECDBFDF91CF911F910F91FF90FE
:100D5000EF90DF90CF90BF90AF909F908F907F905B
:100D60006F9008950F93CF93DF9300D0CDB7DEB788
:100D700081E6898383E18A8300E021E0AE014F5F51
:100D80005F4F60E470E087E090E00E9429060F90DA
:100D90000F90DF91CF910F9108958150823010F420
:100DA0000C94B20608951F920F920FB60F92112461
:100DB000EF92FF920F931F932F933F934F935F9365
:100DC0006F937F938F939F93AF93BF93EF93FF9313
:100DD000CF93DF9300D01F92CDB7DEB700911804F8
:100DE000109119040115110509F4BAC09091C000C1
:100DF00097FF0FC02091C1008091C6009C7149F4FB
:100E000021FB992790F9592F40E09A01282BC9011D
:100E100002C08FEF9FEF8F3F3FEF930709F4A0C011
:100E2000F801E05CFE4F10821182128213828F3F24
:100E3000910509F008F484C0F801118E27813085EE
:100E40008217930729F480E289838A8342E016C0DF
:100E5000F801258136818217930709F054C081E299
:100E6000898384E28A8385E08B838081882329F0CB
:100E7000E35CFE4F80818F3F41F443E0BE016F5F32
:100E80007F4FC8010E9415016BC0F801428D4423B9
:100E9000B9F1838D882331F0B801655E7F4FC801B9
:100EA0000E941501F801B396980126553F4F8081A5
:100EB000DF0119978C9380E090E07F014AE1E41A0A
:100EC000F108BF0163527109D701A80FB91F5B96E2
:100ED0004C91DB01A80FB91F5B964C9301968830AB
:100EE000910591F73996E217F30709F7F801EF55E5
:100EF000FF4F108231961192E217F307E1F730C0ED
:100F0000F801128E2DC08036F1E09F0731F0F80114
:100F1000238134818217930799F4F8011286118690
:100F20001486138616861586108A1786128A118AE9
:100F3000148A138A168A158A108E178A21E0218F47
:100F4000F801218D222361F0218532852F5F3F4FEB
:100F500032872187220F331FE20FF31F9287818789
:100F60000F900F900F90DF91CF91FF91EF91BF9174
:100F7000AF919F918F917F916F915F914F913F9131
:100F80002F911F910F91FF90EF900F900FBE0F9038
:100F90001F9018950F931F93CF93DF93CDB7DEB7B4
:100FA0002B970FB6F894DEBF0FBECDBF8091000126
:100FB0008B7F893609F041C0198210E081E0909161
:100FC0002204191700F5A1E0B0E0AC0FBD1FA80F77
:100FD000B11DE12FF0E0E159FB4F90819C938F5FB1
:100FE0008B3078F002E020E0AE014F5F5F4F60E8A9
:100FF00070E08FE090E00E94290689818F5F8983ED
:1010000081E01F5FDCCF8B30A8F4E1E0F0E0EC0F73
:10101000FD1FE80FF11D10828F5F8B30B1F702E0EA
:1010200020E0AE014F5F5F4F60E870E08FE090E03E
:101030000E94290680E3809300012B960FB6F89456
:10104000DEBF0FBECDBFDF91CF911F910F910895ED
:101050000F93CF93DF9300D000D01F92CDB7DEB7B0
:1010600094E6998394E19A831B828C836D8300E0DC
:1010700021E0AE014F5F5F4F60E470E08AE090E0F6
:101080000E9429060F900F900F900F900F90DF9104
:10109000CF910F9108950F93CF93DF9300D000D09D
:1010A000CDB7DEB793E499838A836B834C8301E0E9
:1010B00021E0AE014F5F5F4F60E470E089E090E0B7
:1010C0000E9429060F900F900F900F90DF91CF9103
:1010D0000F9108958F92AF92CF92EF920F93CF938B
:1010E000DF93CDB7DEB729970FB6F894DEBF0FBEFA
:1010F000CDBF233009F424E04111286091E0E912CA
:1011000001C000689FEE99838F738A836B832C8361
:101110000D83CE82AF8288868B8989878C898111E5
:1011200002C000E001C001E021E0AE014F5F5F4F6F
:1011300060E470E08EE090E00E94290629960FB6E8
:10114000F894DEBF0FBECDBFDF91CF910F91EF902E
:10115000CF90AF908F9008950F93CF93DF9300D0EF
:10116000CDB7DEB791E699831A82823091F038F4D8
:10117000882359F08130C1F481E889830AC0843022
:1011800031F0803289F482E003C081E001C088E060
:101190008A8301E021E0AE014F5F5F4F60E470E0C1
:1011A00087E090E00E9429060F900F90DF91CF9189
:1011B0000F910895EF92FF920F93CF93DF93E8E2A0
:1011C000F4E090E0A0E0B0E05AE07F0135E0E31AFF
:1011D000F108E701388138132EC07F01D4E0ED1A01
:1011E000F108E7013881361326C07F01D3E0ED1AFC
:1011F000F108E701388134131EC07F01D2E0ED1AF7
:10120000F108E7013881321316C086E08A9FF001A9
:101210008B9FF00D1124ED5DFB4F84E1858301115F
:10122000048386E08A9FF0018B9FF00D1124ED5D11
:10123000FB4F84811DC03081311103C05A3009F445
:10124000592F119636969F5F9A3009F0BECF36E03F
:10125000539FE0011124CD5DDB4F888369834A836E
:101260002B8384E18D8380912F060E94AC088C81B2
:10127000DF91CF910F91FF90EF90089526E0829F2C
:10128000C0011124FC01ED5DFB4F1082118212821E
:1012900013821482158208950895CF93DF931F92CD
:1012A000CDB7DEB76983DC01ED91FC910280F3815B
:1012B000E02D41E050E0BE016F5F7F4F09950F9038
:1012C000DF91CF910895CF93FC01C08D80E590E030
:1012D0000E94970160E270E08C2F0E94830C62E014
:1012E00070E08C2F0E94BB1684FD19C062E070E094
:1012F0008C2F0E94BB1683FF0BC048E162E070E0B8
:101300008C2F0E94B1160E94960180E090E011C0DF
:101310000E94960180E590E00E949701E0CF40E1B5
:1013200062E070E08C2F0E94B1160E94960181E06D
:1013300090E0CF910895FF920F931F93CF93DF9387
:10134000FB01DC0157961C921E9256975896FC9012
:101350008281811109C08381811106C0848181113C
:1013600003C085818823F9F041155105E1F08A0118
:10137000EF0180E590E00E949701BE016E5F7F4F14
:101380002F2D30E0922F882744E050E0845F9B4F60
:101390000E942815B8018F2D0E94E1160E94960127
:1013A00081E090E002C080E090E0DF91CF911F915A
:1013B0000F91FF900895BF92CF92DF92EF92FF922C
:1013C0000F931F93CF93DF9300D000D000D0CDB701
:1013D000DEB7FC01208D243009F053C06A017B0187
:1013E0008C01B12C63E070E08B2D0E94BB16811143
:1013F00003C0F801B08E06C08831D9F3B394F4E08D
:10140000BF12F0CFF801808D8430D9F196E0E4E589
:10141000F1E0DE01119601900D929A95E1F7F70146
:1014200093819F779C8394819D8395819E83B7014F
:101430006E5F7F4F90E0982F882744E050E0845FF4
:101440009B4F0E942815B601F801808D0E94E1167D
:10145000F801808D90E0982F882746E050E0BE018B
:101460006F5F7F4F8A5F9B4F0E942815F801128E95
:10147000118E20E8A60162E0808D0E94791581E03E
:1014800001C080E026960FB6F894DEBF0FBECDBF38
:10149000DF91CF911F910F91FF90EF90DF90CF9050
:1014A000BF900895CF93DF931F92CDB7DEB7FC01B5
:1014B000218D328D232B49F0BE016F5F7F4F808DD0
:1014C0000E94BD15898190E002C08FEF9FEF0F90C1
:1014D000DF91CF910895AF92BF92CF92DF92FF92AA
:1014E0000F931F93CF93DF938C015B01EA01FC0103
:1014F000C688D788F08C80E590E00E9497018F2DF8
:101500000E94551A8C179D0720F48F2D0E94551AA2
:10151000EC019E01A501B6018F2D0E94F0190E94D9
:101520009601F801868997898C0F9D1F978B868B72
:10153000CE01DF91CF911F910F91FF90DF90CF905F
:10154000BF90AF900895CF92DF92EF92FF920F93EA
:101550001F93CF93DF93CDB7DEB7AF970FB6F89455
:10156000DEBF0FBECDBF7C016A010AEC11E01A8319
:1015700009831C861B8688EE93E0A0E0B0E08D878F
:101580009E87AF87B88B84EA91E09A878987188F06
:101590000F8B198E1A8E1B8E1C8E84E089A31DA3BF
:1015A0000CA31EA21FA218A619A68091BF04909199
:1015B000C004A091C104B091C2048CA79DA7AEA79E
:1015C000BFA78B839C83AD83BE8318861F82AE0129
:1015D0004C5D5F4FCE0101960E949E0281309105C5
:1015E000B1F4D701ED91FC910088F189E02D1BA7A2
:1015F0000AA78EA19FA1A8A5B9A58CA79DA7AEA754
:10160000BFA7A601BE01665D7F4FC7010995AF96D2
:101610000FB6F894DEBF0FBECDBFDF91CF911F9103
:101620000F91FF90EF90DF90CF900895FF920F936E
:101630001F93CF93DF93F82E80E590E00E949701EF
:10164000C0E0D0E08F2D0E94C1148C01892B21F0C5
:101650008F2D0E94C114EC01C017D10799F70E9489
:101660009601CE01DF91CF911F910F91FF900895C8
:10167000AF92BF92CF92DF92EF92FF921F93CF93E0
:10168000DF93182F5B017A0180E590E00E949701BB
:10169000C0E0D0E0812F0E94C1146C01892B21F0A1
:1016A000812F0E94C114EC01CC15DD0599F720971C
:1016B00099F463E070E0812F0E94BB168431F1F051
:1016C0008823E1F0C1E0D0E08C3111F4C0E0D0E03B
:1016D000D195C195D10912C0EC16FD060CF4E701B5
:1016E0001C161D065CF420E0AE01B501812F0E949E
:1016F000AC0C60E470E0812F0E94830C0E94960184
:10170000CE01DF91CF911F91FF90EF90DF90CF90AE
:10171000BF90AF900895CF93DF93FC01218D328D60
:101720002115310519F48FEF9FEF11C0EC0142171D
:10173000530708F0A901888D0E94380B1816190666
:1017400094F7298D3A8D281B390B3A8F298FDF9119
:10175000CF9108950F931F93CF93DF931F92CDB72F
:10176000DEB7FC01218D328D232B61F08C0141E02D
:1017700050E0BE016F5F7F4F808D0E94380B1816BE
:1017800019061CF08FEF9FEF08C0F801818D928D34
:101790000197928F818F898190E00F90DF91CF9197
:1017A0001F910F9108950F931F93CF93DF93CDB7A0
:1017B000DEB728970FB6F894DEBF0FBECDBF8C0101
:1017C000F801818D928D892B49F0D801ED91FC9122
:1017D0000680F781E02DC8010995F2CF808D0E9427
:1017E000160B181619065CF548E050E0BE016F5F55
:1017F0007F4FD80158968C910E94380B9C01181687
:101800001906DCF489819A81AB81BC81F801808B57
:10181000918BA28BB38B8D8190E0982F88272E819E
:10182000820F911D958B848B2F8130E0322F2227E0
:101830008885280F311D328F218FC90102C080E0B9
:1018400090E028960FB6F894DEBF0FBECDBFDF91B3
:10185000CF911F910F910895CF93C82F80E590E00D
:101860000E94970160E170E08C2F0E94830C4FEF83
:1018700062E070E08C2F0E94B116CF910C9496011B
:101880001F93CF93DF931F92CDB7DEB7182F80E55C
:1018900090E00E94970163E070E0812F0E94BB16E8
:1018A00089830E94960189810F90DF91CF911F91CA
:1018B000089529E0829FC00111248E509B4FFC01A6
:1018C000E655FF4F20812F3FE1F4319620812F3FD5
:1018D000C1F4329620812F3FA1F4319620812F3F11
:1018E00081F4319620812F3F61F4319620812F3F82
:1018F00041F4319620812F3F21F4319681E090818F
:10190000911180E00895CF93C82F462F61E070E0D9
:101910000E94B11661E070E08C2F0E94BB1681110D
:10192000F9CFCF9108950F931F93CF93DF93EC01DD
:10193000462F50E060E070E02AE00E94F1128C0136
:101940006AEF71E0CE010E94DC12800F911FDF91DF
:10195000CF911F910F9108958F929F92AF92BF9256
:10196000CF92DF92EF92FF920F931F93CF93DF936B
:10197000B82E4B018A01A22E68E270E00E94BB16CD
:10198000C82FD0E069E270E08B2D0E94BB16DC2FDF
:10199000CC27C82B9E013770CB2CD12CC601880FC9
:1019A000991FAC014B545B4F6A01FA018081918110
:1019B000820F931FA801420F531F4130584098F0E7
:1019C00060E078E07B01E21AF30AA701B4010E940B
:1019D000F814A8014E195F09B4016E0D7F1DF601C0
:1019E0008081918102C0A801B4010E94F814A11065
:1019F0000EC0C00FD11F4D2F68E270E08B2D0E94EA
:101A0000B1164C2F69E270E08B2D0E94B116DF9168
:101A1000CF911F910F91FF90EF90DF90CF90BF90EB
:101A2000AF909F908F900895ECE0F5E020E030E0DB
:101A3000408141111DC079E0729FA001739F500D3C
:101A40001124FA01EE50FB4F628FFC0180E090E020
:101A500070E08617970754F42191DC01A40FB51F9D
:101A6000AE50BB4F5B962C930196F3CF81E0089567
:101A70002F5F3F4F399620313105D1F680E0089530
:101A80009C01FC0190E070E061507109AF01421BC4
:101A9000530B461757071CF481919827F7CF908373
:101AA0000895EF92FF920F931F93CF93DF93F82E39
:101AB000E62E02EF14E0C0E0D0E0F801E655FF4F5B
:101AC00080818E1104C0319680818F1529F08C2F72
:101AD0000E94590C882361F08C2F0E94590C882396
:101AE000B1F189E08C9F90018D9F300D112418C0B9
:101AF0002196075F1F4FCF30D105F9F6E4EAF5E0F4
:101B000090E0C0E08FEF2081281710F4822FC92FBA
:101B100039969F5F9F30B9F789E0C89F90011124E3
:101B20002E503B4FF901E655FF4FE0823196F0828F
:101B300031968BE0808331961082319610823196F7
:101B400010823196108231961082319610828C2F3D
:101B5000DF91CF911F910F91FF90EF9008956F92B9
:101B60007F928F92AF92CF92EF92FF920F931F933B
:101B7000CF93DF931F92CDB7DEB7182FF62E498390
:101B80000E94510D29E0829FC00111249C012E501A
:101B90003B4F3901F901E455FF4F90813296208186
:101BA0003196A0803196808031968081322F3F71AE
:101BB000C32E25FBEE24E0F83497292F237093FBE6
:101BC000992790F949814F938F930081492F6F2D69
:101BD000812F0E946A080F900F90F301EE54FF4F7F
:101BE00080818F3F11F08F5F80830F90DF91CF91C5
:101BF0001F910F91FF90EF90CF90AF908F907F90BB
:101C00006F9008958F929F92AF92BF92EF92FF9242
:101C10000F931F93CF93DF93CDB7DEB727970FB600
:101C2000F894DEBF0FBECDBF0E9467144B015C016C
:101C30008091FD049091FE04892B09F4A7C2809144
:101C40000B058111A3C28091300690913106892B3A
:101C500069F481E090E0909331068093300680E053
:101C600090E0892B19F081E00E9400008091FD0432
:101C70009091FE04803621E0920709F05BC020912C
:101C8000FB043091FC048091FF0490910005243006
:101C90003105C9F581369105B1F580910105909125
:101CA00002058130910561F480910305909104054E
:101CB0008036910509F049C210922F0680E043C298
:101CC000009751F4809103059091040581369105A8
:101CD00009F03BC282E02BC08830910539F484E0E2
:101CE00080932F0682E00E94AC0889C0029709F019
:101CF0002CC280910305909104058336910509F06B
:101D000024C280E214C08138910509F01EC280917E
:101D1000010590910205892B09F017C280910305F6
:101D2000909104058138910509F00FC281E08093FC
:101D30002F0609C22091F5043091F604821793070B
:101D400009F003C28091FB049091FC04833091055B
:101D500008F4FBC12091FF043091000523363105C2
:101D600009F465C050F42136310509F44BC090F4F4
:101D70002234310509F4B7C1E8C1233E310509F425
:101D800033C1243E310509F47BC0233A310509F003
:101D9000DCC1D5C120910105309102052232310507
:101DA00009F0D3C1059708F4D0C18091F2048111E4
:101DB0000CC081E289838A831B8263E0CE01019695
:101DC0000E94140D81E08093F20410922F068091FE
:101DD000030590910405009791F080FF03C021E076
:101DE00020932F0681FF03C022E020932F0683FF5C
:101DF00003C020E220932F0686FD1092F20480910A
:101E00002F06A1C1039709F4A0C18091010590910B
:101E10000205439711F40E94B2068091010590914A
:101E200002054F9709F091C10E94B2068EC1209120
:101E30000105309102052132310561F4059750F01A
:101E400080E090E0892B31F06091050580910305D9
:101E50000E94000080910105909102058B7F4097C0
:101E600009F073C18091FB049091FC04059708F47C
:101E70006CC160910505809103050E94280865C129
:101E8000079708F462C100912306109124060115FA
:101E9000110509F45AC110922406109223064091AC
:101EA0000105242F277F243009F423E080910305C6
:101EB00090910405382F3F77F32E80789927309141
:101EC0000505E090070543FD2860892B19F0932F45
:101ED000906202C0932F9F7D602F812F2F839E835E
:101EE0000E94510D482F50E039E0839FF0011124EA
:101EF000E256FA4F80812F819E81821719F020834C
:101F000021E001C020E089E0849FF001859FF00D71
:101F10001124E156FA4F80818F1511F0F08221E0F3
:101F200089E0849FF001859FF00D1124E056FA4F5F
:101F30008081891711F0908302C0222371F089E01B
:101F4000849FF001859FF00D1124EC55FA4F80819C
:101F50008F3F11F08F5F808321E0602F812F2F83CF
:101F60000E94510D49E0849FC00111248E509B4F67
:101F7000FC01E155FF4F30812F813E1541F0E08299
:101F8000339680818F3F29F08F5F808302C02223A8
:101F900029F041E0602F812F0E94AF0DF110D5C0D4
:101FA00019821A821B821C8282E989831A830B831D
:101FB00064E0CE0101960E94400D64E0CE010196DE
:101FC0000E94140D602F812F0E94510D59E0859FB2
:101FD000C0011124FC01E156FA4F108241E0602F4C
:101FE000812F0E94AF0DB1C02091010530910205F3
:101FF0002235310509F04FC0069708F44CC0009116
:102000002706109128060115110509F444C0109205
:10201000280610922706E0900305F0900505602F32
:10202000812F0E94510D282F30E099E0899FF00107
:102030001124EE55FA4F80818E1559F089E0829F68
:10204000F001839FF00D1124EE55FA4FE08281E0FC
:1020500001C080E099E0929FF001939FF00D112460
:10206000ED55FA4F90819F1511F0F08202C0882340
:1020700091F089E0829FF001839FF00D1124EC55CF
:10208000FA4F80818F3F11F08F5F808341E0602F96
:10209000812F0E94AF0D809101059091020580343F
:1020A000910509F052C08091FB049091FC040697C1
:1020B00008F44BC060910505809103050E94510D05
:1020C000E9E08E9FC00111248E509B4FFC01E45526
:1020D000FF4F208128602083369680818F3FA9F1B1
:1020E0008F5F808332C0039781F1009101051091C9
:1020F0000205000F111F000F111FE0900305F09063
:102100000405C70124E0969587952A95E1F780FF9D
:1021100002C00E5F1F4F4E2D4370602F812F0E9413
:102120004B08A7015695479556954795437061E032
:10213000600F0F5F1F4F812F0E944B0806C003974F
:1021400021F0809101050E94AC081092FC041092CD
:10215000FB041092FE041092FD04109200051092F0
:10216000FF041092020510920105109204051092CE
:1021700003051092060510920505109208051092AD
:10218000070510920A051092090536C080913206A3
:1021900090913306A0913406B09135060196A11DA9
:1021A000B11D8093320690933306A0933406B0930A
:1021B000350685309942A105B105F4F01092F2047C
:1021C00010923206109233061092340610923506A1
:1021D00081E02091300630913106232B09F080E018
:1021E000282F30E0309331062093300620E030E095
:1021F000232B11F00E9400008091290690912A065D
:10220000A0912B06B0912C06A5019401281B390B37
:102210004A0B5B0B293C31054105510590F1809239
:10222000290690922A06A0922B06B0922C062091A5
:102230002306309124062115310519F180912506D8
:1022400090912606019690932606809325060A977C
:10225000C4F08E010F5F1F4F85E0F80111928A953F
:10226000E9F783EE89833B832C8365E0C8010E94F4
:10227000400D65E0C8010E94140D109226061092D0
:10228000250627960FB6F894DEBF0FBECDBFDF91AF
:10229000CF911F910F91FF90EF90BF90AF909F90C3
:1022A0008F9008958F7799279C0140E050E0211589
:1022B000310541F061E04627B901615071092623DB
:1022C0003723F5CF452B09F080680895CF92DF9230
:1022D000EF92FF920F931F93CF93DF936C017A01DC
:1022E0008B01C0E0D0E0CE15DF0589F0D8016D91FB
:1022F0008D01D601ED91FC910190F081E02DC60198
:102300000995892B11F47E0102C02196ECCFC701FB
:10231000DF91CF911F910F91FF90EF90DF90CF90C1
:102320000895833081F028F4813099F08230A1F053
:1023300008958730A9F08830B9F08430D1F48091C5
:1023400080008F7D03C0809180008F778093800014
:10235000089584B58F7702C084B58F7D84BD0895BC
:102360008091B0008F7703C08091B0008F7D809303
:10237000B00008953FB7F894809167069091680681
:10238000A0916906B0916A0626B5A89B05C02F3FAB
:1023900019F00196A11DB11D3FBFBA2FA92F982F8B
:1023A0008827820F911DA11DB11DBC01CD0142E006
:1023B000660F771F881F991F4A95D1F708950E94CD
:1023C0005026FC0180819181009711F00C947F26AA
:1023D00060E070E0CB010895CF93DF93FC0124818E
:1023E00035814217530780F4FB01DC01CD91DC916C
:1023F00060817181CE01840F951F0E946526009730
:1024000019F08C1B9D0B02C08FEF9FEFDF91CF91D6
:1024100008950F931F93CF93DF93EC0188819981E7
:10242000009729F02A813B812617370788F48B0112
:102430006F5F7F4F0E948625009761F099838883A4
:102440001B830A832C813D81232B11F4FC01108214
:1024500081E001C080E0DF91CF911F910F9108953D
:10246000EF92FF920F931F93CF93DF93EC017B01C9
:102470008A01BA010E9409122881398181110DC097
:102480002115310519F0C9010E94EE241982188224
:102490001D821C821B821A8206C01D830C83B70119
:1024A000C9010E945E26CE01DF91CF911F910F914D
:1024B000FF90EF900895CF93DF93EC0161157105C4
:1024C00059F0FB0101900020E9F73197AF01461B5D
:1024D000570B0E9430120CC088819981009711F02F
:1024E0000E94EE24198218821D821C821B821A828D
:1024F000CE01DF91CF910895FC01808191810C94F0
:10250000EE24FC0111821082138212821582148241
:102510006115710551F0FB0101900020E9F7319739
:10252000AF01461B570B0C9430120895BF92CF9207
:10253000DF92EF92FF920F931F93CF93DF937C0173
:102540006B018A01E9012417350720F4812F8901E5
:10255000C42FD82F6CEF71E0C7010E948112D60101
:1025600014968D919C91159708171907D0F48C1724
:102570009D0708F4EC01D601ED91FC911197EC0F49
:10258000FD1FB08010824D915C91BA01600F711FE8
:10259000C7010E945B12D601ED91FC91EC0FFD1F6B
:1025A000B082C701DF91CF911F910F91FF90EF9003
:1025B000DF90CF90BF9008956115710579F0FB0110
:1025C00001900020E9F73197AF01461B570BDC0162
:1025D000ED91FC910280F381E02D099480E090E080
:1025E00008954F925F926F927F92EF92FF920F93B6
:1025F0001F93CF93DF93CDB7DEB7A1970FB6F894B3
:10260000DEBF0FBECDBF7C01FA01CB0119A2223083
:1026100008F42AE08E010F5D1F4F422E512C612CD1
:10262000712CBF01A30192010E943D27F901CA014B
:10263000015011096A3014F4605D01C0695CD80171
:102640006C93232B242B252B61F7B801C7010E9423
:10265000DC12A1960FB6F894DEBF0FBECDBFDF919E
:10266000CF911F910F91FF90EF907F906F905F90AF
:102670004F9008958F929F92AF92BF92CF92DF9228
:10268000EF92FF920F931F93CF93DF937C01EB01A7
:102690006C0182E0C80ED11C4701E5E08E0E911C52
:1026A00000E010E0F60141916F0150E060E070E061
:1026B0002AE0CE010E94F1125C01E881F9810190CB
:1026C000F081E02D6EE2CE0109958A0D9B1D080F69
:1026D000191FC814D90431F7F701458150E060E0B3
:1026E00070E02AE0CE010E94F112800F911FDF916D
:1026F000CF911F910F91FF90EF90DF90CF90BF90FF
:10270000AF909F908F9008950F931F93CF93DF9377
:10271000EC010E94DC128C016AEF71E0CE010E9494
:10272000DC12800F911FDF91CF911F910F910895BF
:10273000CF93DF93282F30E0F901E458FF4F8491C5
:10274000F901E656FF4FD491F901E255FF4FC491CC
:10275000CC2391F081110E949111EC2FF0E0EE0F4B
:10276000FF1FEE58FF4FA591B491EC91ED2381E04E
:1027700090E021F480E002C080E090E0DF91CF9112
:1027800008951F93CF93DF93282F30E0F901E45889
:10279000FF4F8491F901E656FF4FD491F901E255BC
:1027A000FF4FC491CC23C9F0162F81110E949111C3
:1027B000EC2FF0E0EE0FFF1FE859FF4FA591B49109
:1027C0008FB7F894111105C09C91ED2FE095E92386
:1027D00002C0EC91ED2BEC938FBFDF91CF911F9155
:1027E0000895CF93DF9390E0FC01E656FF4F2491CC
:1027F000FC01E255FF4F8491882361F190E0880F3E
:10280000991FFC01E057FF4FC591D491FC01E85995
:10281000FF4FA591B491611109C09FB7F8948881C9
:10282000209582238883EC912E230BC0623061F4C3
:102830009FB7F8943881822F809583238883EC9109
:102840002E2B2C939FBF06C08FB7F894E8812E2BB8
:1028500028838FBFDF91CF9108958F929F92AF927F
:10286000BF92CF92DF92EF92FF926B017C010E94A8
:10287000BA114B015C01C114D104E104F104F1F07F
:102880000E94BA11DC01CB0188199909AA09BB0978
:10289000883E9340A105B10570F321E0C21AD1082A
:1028A000E108F10888EE880E83E0981EA11CB11C97
:1028B000C114D104E104F10419F7DDCFFF90EF90CA
:1028C000DF90CF90BF90AF909F908F9008952FB7DB
:1028D000F89460916306709164068091650690910A
:1028E00066062FBF08951F920F920FB60F92112404
:1028F0002F933F938F939F93AF93BF9380916306E2
:1029000090916406A0916506B091660630916206CA
:1029100023E0230F2D3720F40196A11DB11D05C022
:1029200026E8230F0296A11DB11D20936206809315
:10293000630690936406A0936506B0936606809143
:10294000670690916806A0916906B0916A060196A3
:10295000A11DB11D8093670690936806A093690638
:10296000B0936A06BF91AF919F918F913F912F9144
:102970000F900FBE0F901F9018952A9A08952A98CD
:1029800008951F93CF93DF93182F66E270E00E94A3
:10299000BB16C82FD0E067E270E0812F0E94BB1603
:1029A000DC2FCC279E01282BC901DF91CF911F91ED
:1029B00008951F93CF93DF93182F60E270E00E9479
:1029C000BB16C82FD0E061E270E0812F0E94BB16D9
:1029D000DC2FCC279E01282BC901DF91CF911F91BD
:1029E00008958EBD00000DB407FEFDCF8EB508958D
:1029F000CF92DF92EF92FF920F931F93CF93DF93CB
:102A0000EC017A018B016C01C40ED51ECC15DD05DD
:102A1000A9F00E94BF148FE00E94F1148D2F0E9434
:102A2000F1148C2F0E94F114219680E00E94F11481
:102A3000F80181938F010E94BD14E8CFC701DF9197
:102A4000CF911F910F91FF90EF90DF90CF9008955D
:102A5000CF92DF92EF92FF920F931F93CF93DF936A
:102A6000EC017A018B016C01C40ED51ECC15DD057D
:102A7000A1F00E94BF1480EF0E94F1148D2F0E94DC
:102A8000F1148C2F0E94F1142196F80181918F018D
:102A90000E94F1140E94BD14E9CFC701DF91CF91CC
:102AA0001F910F91FF90EF90DF90CF9008951F93AB
:102AB000CF93DF9300D0CDB7DEB7182F6A83998309
:102AC0000E94BF1480EF0E94F1149981892F0E9407
:102AD000F114812F0E94F1146A81862F0E94F11453
:102AE0000E94BD1481E00F900F90DF91CF911F9154
:102AF0000895FF920F931F93CF93DF9300D0CDB72C
:102B0000DEB7F82E8A012A8369830E942C0C80E5A7
:102B100090E00E9497012A816981462F422B60E054
:102B200070E08F2D0E94B1160115110551F400912E
:102B30006006109161060F5F1F4F109361060093AE
:102B40006006412F64E070E08F2D0E94B116402F87
:102B500065E070E08F2D0E94B11661E070E08F2D6E
:102B60000E94830C0E94960181E00F900F90DF91EC
:102B7000CF911F910F91FF9008951F93CF93DF93F3
:102B800000D0CDB7DEB7182F80E590E069837A8357
:102B90000E94970121E041E050E069817A81812F14
:102BA0000E94AC0C0E94960181E090E00F900F9083
:102BB000DF91CF911F910895FC01818D928D089531
:102BC000FC018489958908952AEC31E0FC01318368
:102BD0002083FB014089518962897389FC0142830A
:102BE0005383648375830895DC01ED91FC91008C1F
:102BF000F18DE02D0994CF93DF931F92CDB7DEB70F
:102C00006983DC01ED91FC910280F381E02D41E0CC
:102C100050E0BE016F5F7F4F09950F90DF91CF911C
:102C20000895FC019485FB018485981303C081E01D
:102C3000943009F480E0089521E0FC01848584301B
:102C400009F420E0822F08950895CF93DF93EC01DB
:102C5000888D843061F00E942C0CE88DF0E0EE0F3E
:102C6000FF1FE65EFB4F1182108284E0888FDF91A8
:102C7000CF910895EF92FF921F93CF93DF93FC01C2
:102C8000208D243011F080E01CC07B01EC0110E0AD
:102C9000812F0E94400C811102C0188F05C088311D
:102CA000E1F31F5F1430A1F7888D843061F3FD8656
:102CB000EC861A8E198E20E0A70162E00E94791539
:102CC00081E0DF91CF911F91FF90EF9008950F93D6
:102CD0001F93CF93DF931F92CDB7DEB78C01DC013A
:102CE000ED91FC910480F581E02D0995892B51F03F
:102CF000BE016F5F7F4FF80184850E94BD158981F9
:102D000090E002C08FEF9FEF0F90DF91CF911F9166
:102D10000F910895FC0184850C94380BCF93DF93B9
:102D20001F92CDB7DEB741E050E0BE016F5F7F4F2D
:102D3000FC0184850E94380B181619061CF4898141
:102D400090E002C08FEF9FEF0F90DF91CF91089539
:102D5000FC018485843011F00C94160B80E090E027
:102D600008959B0190E00496982F8827642F820F86
:102D7000931F0C9457150F931F93CF93DF931F92BC
:102D8000CDB7DEB790E00496982F88278C01060F08
:102D9000171F0E94BF148FE00E94F114812F0E9420
:102DA000F114802F0E94F11480E00E94F1148983B5
:102DB0000E94BD1489810F90DF91CF911F910F91D7
:102DC0000895CF93DF93C82FD62F472F60E170E08F
:102DD0000E94B1164D2F61E170E08C2FDF91CF91F1
:102DE0000C94B116FC018485843011F00C94400CD5
:102DF00080E008958F929F92AF92BF92CF92DF9220
:102E0000EF92FF920F931F93CF93DF93CDB7DEB76F
:102E10002D970FB6F894DEBF0FBECDBF7C0100E04A
:102E200010E038EE832E33E0932EA12CB12C44E336
:102E3000C42E41E0D42E1C821B828D829E82AF82E2
:102E4000B886DA82C9820D87CE0101960E94F216F9
:102E5000811125C0F7014481558120E061E0802F78
:102E60000E94791580E590E00E94970163E070E090
:102E7000802F0E94BB16833129F462E070E0802F1E
:102E80000E94830C0E949601F70184819581000FB6
:102E9000111FF801E65EFB4F9183808305C00F5F31
:102EA0001F4F0430110539F62D960FB6F894DEBF8A
:102EB0000FBECDBFDF91CF911F910F91FF90EF908B
:102EC000DF90CF90BF90AF909F908F900895CF9359
:102ED000DF93FC0124852430D1F0EC010E94F2162E
:102EE000843181F0882371F0883161F08C3161F494
:102EF000E881F9810480F581E02DCE01099521E07A
:102F0000892B19F420E001C021E0822F01C080E06C
:102F1000DF91CF910895CF92DF92EF92FF921F93AE
:102F2000CF93DF93FC0114851430A9F1EC0180E507
:102F300090E00E94970168E070E0812F0E94830C6E
:102F40000E9496010E9467146B017C01CE010E94D1
:102F5000F2168823B1F061E070E080E090E00E941A
:102F60002D140E946714DC01CB018C199D09AE0958
:102F7000BF09883E9340A105B10540F38C850E94AE
:102F80002C0CEC85F0E0EE0FFF1FE65EFB4F11828C
:102F9000108284E08C87DF91CF911F91FF90EF909A
:102FA000DF90CF9008954F925F926F927F928F92B1
:102FB0009F92AF92BF92CF92DF92EF92FF921F93B8
:102FC000CF93DF93CDB7DEB72D970FB6F894DEBF62
:102FD0000FBECDBF7C019AE1A92E94E0B92E10E07E
:102FE000C12CD12C28EE422E23E0522E612C712CC4
:102FF00034E3832E31E0932E1C821B824D825E824D
:103000006F8278869A8289821D87D5012D913D91A4
:103010005D01F7018481958128173907B1F4CE014C
:1030200001960E94F216843169F0CE0101960E9449
:10303000F2168C3151F4CE0101960E94A816892B0C
:1030400091F003C0CC24C394D12C1F5F1430A1F69F
:10305000CD2871F4D701ED91FC910480F581E02D2C
:10306000C701099505C0CE0101960E948B17EDCFCF
:103070002D960FB6F894DEBF0FBECDBFDF91CF9176
:103080001F91FF90EF90DF90CF90BF90AF909F90F7
:103090008F907F906F905F904F9008952F923F9206
:1030A0004F925F926F927F928F929F92AF92BF9258
:1030B000CF92DF92EF92FF920F931F93CF93DF9304
:1030C000CDB7DEB72E970FB6F894DEBF0FBECDBFDB
:1030D0007C016B015A010E94D3170AE114E020E041
:1030E000612C712C88EE282E83E0382E412C512C37
:1030F00094E3892E91E0992E1C821B822D823E82C0
:103100004F8258869A8289822D87F8014191519188
:103110008F01F701848195814817590741F4CE0149
:1031200001962E870E94F2162E858731E9F02F5FD7
:10313000243011F7C3012E960FB6F894DEBF0FBEF0
:10314000CDBFDF91CF911F910F91FF90EF90DF9056
:10315000CF90BF90AF909F908F907F906F905F9037
:103160004F903F902F900895A501B601CE01019692
:103170002E870E949A01680E791E2E85D8CFCF9295
:10318000DF92EF92FF920F931F93CF93DF93CDB710
:10319000DEB7C254D1090FB6F894DEBF0FBECDBF63
:1031A000FC0182819381A481B58123968CAF9DAF70
:1031B000AEAFBFAF239721E023962FAF239723967F
:1031C0004CAD5DAD6EAD7FAD23974BAB5CAB6DABE6
:1031D0007EAB89AF9AAFABAFBCAF8DA79EA7AFA7B1
:1031E000B8AB28AB4DA55EA56FA578A94FA358A78E
:1031F00069A77AA72EAB4BA95CA96DA97EA949A3A3
:103200005AA36BA37CA38B8F9C8FAD8FBE8F4AEC90
:1032100051E05C8B4B8B3FEF3D8B3E8B3F8B188E91
:103220005E874D872AA7CFA0D8A4E9A4FAA4CF86A9
:10323000D88AE98AFA8A2CA309A11AA12BA13CA158
:1032400009871A872B873C875A8349838B839C8302
:10325000AD83BE836CE271E080E090E00E942D14AB
:103260001FB7F89480916B06811127C0E8EBF0E05E
:103270008491E4EAF0E09491E82FF0E0EE0FFF1F74
:10328000E057FF4FA591B491EC91E92321F461E05F
:103290008AE00E94C11361E08AE00E94F1138CB5BC
:1032A00080618CBD8CB580648CBD61E08DE00E9436
:1032B000F11361E08BE00E94F11380916B068F5F48
:1032C00080936B061FBF229A80E590E00E949701D1
:1032D00060E880E090E00E94571565E58BE190E0A2
:1032E0000E94571565E58AE190E00E9457150E94FB
:1032F000960180E090E49093AE048093AD0480E06A
:1033000090E69093B6048093B50480E098E490939F
:10331000B0048093AF0480E098E69093B804809363
:10332000B70480E090E59093B2048093B10480E00C
:1033300090E79093BA048093B90480E098E5909365
:10334000B4048093B30480E098E79093BC04809326
:10335000BB0480E590E00E94970146E050E064E005
:1033600071E089E090E00E94281544E050E0BE0141
:103370006D5F7F4F8FE090E00E94281544E050E0A1
:10338000BE01615F7F4F81E090E00E94281544E01C
:1033900050E0BE016B5E7F4F85E090E00E942815F3
:1033A0000E94960181E08C8789859A85AB85BC85D2
:1033B0008093BF049093C004A093C104B093C2044F
:1033C000CE5BDF4F0FB6F894DEBF0FBECDBFDF91EF
:1033D000CF911F910F91FF90EF90DF90CF900895C4
:1033E0009F92AF92BF92CF92DF92EF92FF920F9394
:1033F0001F93CF93DF93982E8B015A01690164E2EA
:1034000070E00E94BB16E82EF12C65E270E0892D79
:103410000E94BB16FE2CEE24E82AE701C00FD11F44
:103420009E013770E92CF12CC701880F991FAC0160
:1034300043555B4F7A01FA0180819181820F931F7E
:10344000A9014C0D5D1D4130584090F000E018E09E
:10345000021B130BA801B5010E942815A601401BF1
:10346000510BB501600F711FF7018081918102C07E
:10347000A601B5010E942815CC0DDD1D4D2F64E27B
:1034800070E0892D0E94B1164C2F65E270E0892D05
:10349000DF91CF911F910F91FF90EF90DF90CF9030
:1034A000BF90AF909F900C94B116FF920F931F9313
:1034B000CF93DF93F82EC0E0D0E08F2D0E94D91477
:1034C0008C01892B21F08F2D0E94D914EC01C0179B
:1034D000D10799F7CE01DF91CF911F910F91FF9006
:1034E0000895CF93DF93CDB7DEB7AC970FB6F894BE
:1034F000DEBF0FBECDBF789484B5826084BD84B535
:10350000816084BD85B5826085BD85B5816085BDDE
:1035100080916E00816080936E0010928100809196
:10352000810082608093810080918100816080931E
:103530008100809180008160809380008091B10043
:1035400084608093B1008091B00081608093B0006E
:1035500080917A00846080937A0080917A00826002
:1035600080937A0080917A00816080937A008091C4
:103570007A00806880937A001092C10061E081E156
:103580000E94F11361E080E10E94F11361E08FE09D
:103590000E94F11360E081E10E94C11360E080E1CC
:1035A0000E94C11360E08FE00E94C11362E08EE0D0
:1035B0000E94F11362E083E10E94F11362E370E084
:1035C00080E090E00E942D1483E10E949813892BE3
:1035D00011F40C9434238DE290E00E948E05813228
:1035E00010F00C9434238DE290E00E948E05182F89
:1035F0008093010188E290E00E948E058093EE04A2
:1036000089E290E00E948E058093EF048AE290E0C8
:103610000E948E058093F0048BE290E00E948E055C
:103620008093F1048AEC91E09A8389838091EE047F
:103630009091EF04A091F004B091F1048B839C83EE
:10364000AD83BE839E012F5F3F4F7901C9010E9468
:10365000BF188BEC94E00E94FA1661E772E581EDE9
:1036600094E00E943A1610923106109230061092A1
:1036700032061092330610923406109235060E94DC
:1036800067146093290670932A0680932B06909303
:103690002C0680E090E0892B21F0809130060E947A
:1036A00000001093F30489E08093F40461E00E9429
:1036B000F11360E08091F4040E94C1131091F304AF
:1036C000812F90E00E94521191609093FA048093B0
:1036D000F904812F806490E00E94521191609093D0
:1036E000F8048093F704812F806690E00E945211C5
:1036F00091609093F6048093F504F8941092C500BD
:103700008FE08093C4001092C0008CE98093C100C8
:1037100086E08093C200789482EF94E0909319043D
:103720008093180410E0812F0E943E091F5F1A3019
:10373000D1F70E940F06412C512C320143940E9474
:10374000020E81ED94E00E94D30B181619060CF0BE
:10375000D4C400E02091E4044091E3046091E204C9
:103760008091E1040E94DA084AE050E06FE574E0DD
:1037700081ED94E00E948B0B8091620490E0982F81
:10378000882720916104820F911D8236910584F56E
:10379000803691050CF0B1C48033910509F477C0EF
:1037A000D4F48031910509F466C04A9709F098C4B1
:1037B00081E0898392E09A839B831C8290E29D83BF
:1037C0008E831F82188600E020E0A7016AE170E086
:1037D0008CE090E090C48035910509F45AC481359D
:1037E000910509F467C48034910509F079C475C066
:1037F0008238910509F481C494F4803791050CF462
:103800006FC4823791050CF478C48138910509F0B2
:1038100067C48DE6809300010E94CA076EC4893890
:10382000910509F46AC40CF58538910509F058C46E
:1038300019821A821B821C821D821E821F8280E2D4
:1038400088878FE089871A861B8683E08C87809122
:103850002F068D871E861F86188A00E020E0A701AC
:1038600064E870E084E190E046C4805A91090597CD
:1038700008F443C435C485EF89838AE08A831B82B8
:103880001C8200E020E0A70160E170E026C4C09047
:10389000E404B090E304A090E2049090E10406E216
:1038A00014E0D12CF8013397808189110FC0319633
:1038B00080818A110BC0319680818B1107C0D8019D
:1038C0008C918C1103C08D2D0E943E09D3940A5F08
:1038D0001F4FBAE0DB12E6CF10C49091630493351A
:1038E00009F4BCC070F4933209F452C018F4913258
:1038F00009F103C4943209F46EC0933409F48DC005
:10390000FCC3933E09F4D9C038F4903809F0F5C3EC
:1039100099839A8362E038C0943E09F447C1913F8D
:1039200009F0EBC383EF89838AE08A8381E08B838C
:1039300083E2A6C3809164048432A1F050F4813202
:1039400009F0DBC383E689839A8380E38B8382E17A
:1039500097C38038A1F0813809F0CFC399838A8357
:1039600080EA10C082E6898382E28A8380912F06F2
:103970008B8300E021E0A70160E470E0AEC399838F
:103980008A8381EA8B8363E0C7010E94140DB5C36B
:1039900080916404813109F0B0C3809166048F5F27
:1039A00019821A821B821C8292E2998395E19A8382
:1039B0008B8364E0C7010E94400D64E0C7010E9450
:1039C000140D81E28B8B80E18C8B81E38D8B63E026
:1039D000CE014396DACF80916404823109F08DC321
:1039E00000916704109166041F5F85E0F701119252
:1039F0008A95E9F783E2898386E18A831B830C83B6
:103A000065E0C7010E94400D65E0C7010E94140DEA
:103A1000602F812F0E94280870C38091640490E079
:103A2000982F882720916504822B19821A821B8285
:103A30001C8222E429839C0135952795359527958D
:103A40002A838370992721E002970CF420E0205804
:103A50002B8364E0C7010E94400D2DC04091660495
:103A60000091650410916404E02FF0E0F12BCF0188
:103A700083709927880F991F982F9960242F297098
:103A80002660922319821A821B821C8282E5898316
:103A9000F595E795F595E795EA8390689B8364E053
:103AA000C7014CA70E94400D4CA541704F5F602F8D
:103AB000812F0E944B0864E067CF80916404803FAF
:103AC00009F01BC300916604109165041F7340E068
:103AD000602F812F0E94AF0D602F812F0E94510D0A
:103AE000E82F90E029E0E29FF0011124EC55FA4F15
:103AF00020812F3F11F02F5F208329E0289FF001C4
:103B0000299FF00D1124E256FA4F808183FF1EC0D9
:103B10008091230690912406892BC1F4802F90E098
:103B2000912B909324068093230685E0D7011D9264
:103B30008A95E9F783EE89831B830C8365E0C701CF
:103B40000E94400D65E0C7010E94140D909166042B
:103B500080916504209127063091280621153105B2
:103B6000A1F48F73292F30E0382B3093280620934F
:103B7000270625E0F70111922A95E9F723EE29831C
:103B800029E02A838B839C830BC085E0D7011D929B
:103B90008A95E9F783EE898389E08A833B832C83C6
:103BA00065E0C7010E94400D65E0EECE20916404FF
:103BB00000916604A090670410916504283F09F005
:103BC00019C22A2D2F71B12C45E0B594A7944A95BE
:103BD000E1F71F73912E11E0B1E0AB16B10409F0CB
:103BE00010E0602F892D2CA70E94510D2CA52530A7
:103BF00008F082C0282E312C39E0839FF001112477
:103C0000E056FA4F8081982F9F7142E0A416B104CC
:103C1000C1F4211106C084FB112710F931E01327EC
:103C200012C0492F50E08FEF820F02C05595479583
:103C30008A95E2F74170552761E04627142F1170ED
:103C400009C0211107C0112319F0892F806119C003
:103C50008F7017C0422F50E041505109630152014B
:103C600004C0AA0CBB1CCC1CDD1C4A95D2F7B601C3
:103C7000A501112319F0892F8A2903C04095842FAB
:103C8000892396E0D7011D929A95E9F794EE9983DE
:103C900090E29A839B820C838D8366E0C7012CA7F8
:103CA0000E94400D66E0C7010E94140D2CA5211151
:103CB0000FC089E0829DF001839DF00D1124E05634
:103CC000FA4F8081112311F080618DC18F7E8BC1ED
:103CD000C22ED12C89E0829DF001839DF00D11242C
:103CE000E056FA4F112321F0B1E0CB1AD10860C1A0
:103CF00021E0C21AD1086BC19BEF920F943008F0FB
:103D000040C0282E312C39E0839FF0011124EF555B
:103D1000FA4F30813F70C22ED12C42E0A416B1047C
:103D200081F4832F90E0A6014550510902C095957A
:103D300087954A95E2F78170992751E08527182FDA
:103D40001170C6010597B301A20104C0440F551FAD
:103D5000661F771F8A95D2F7DB01CA01112311F084
:103D6000342B02C08095382386E0D7011D928A95B6
:103D7000E9F784EE898381E28A839B820C833D8309
:103D800048C097EF920F943008F05DC0282E312C78
:103D900039E0839FF0011124EF55FA4F808190E0C4
:103DA00034E0959587953A95E1F7C22ED12C42E003
:103DB000A416B10481F4960129503109BC0102C056
:103DC000759567952A95E2F79B012170332771E07D
:103DD0002727122F1170960129503109B301A20132
:103DE00004C0440F551F661F771F2A95D2F7112371
:103DF00011F0842B02C04095842396E0D7011D92D8
:103E00009A95E9F794EE998392E29A839B820C83C8
:103E10008D8366E0C7010E94400D66E0C7010E94E5
:103E2000140D89E0829DF001839DF00D1124EF5562
:103E3000FA4F112321F0B5E0CB1AD108B9C025E023
:103E4000C21AD108C4C093EF920F983008F058C03E
:103E5000282E312C39E0839FF0011124EE55FA4FC2
:103E60003081C22ED12C42E0A416B10481F4832FFC
:103E700090E0A6014D50510902C0959587954A954D
:103E8000E2F78170992751E08527182F1170C6013C
:103E90000D97B301A20104C0440F551F661F771F81
:103EA0008A95D2F7DB01CA01112311F0342B02C02D
:103EB0008095382386E0D7011D928A95E9F784EE34
:103EC000898383EF8A839B820C833D8366E0C701ED
:103ED0000E94400D66E0C7010E94140D89E0829D9A
:103EE000F001839DF00D1124EE55FA4F112321F0BE
:103EF000BDE0CB1AD1085CC02DE0C21AD10867C062
:103F00009BEE920F983008F06FC0282E312C39E0CC
:103F1000839FF0011124ED55FA4F3081C22ED12C30
:103F200042E0A416B10481F4832F90E0A60145512C
:103F3000510902C0959587954A95E2F781709927B6
:103F400051E08527182F1170C6014597B301A201D2
:103F500004C0440F551F661F771F8A95D2F7DB01F7
:103F6000CA01112311F0342B02C08095382386E05A
:103F7000D7011D928A95E9F784EE898388E28A83C6
:103F80009B820C833D8366E0C7010E94400D66E082
:103F9000C7010E94140D89E0829DF001839DF00D00
:103FA0001124ED55FA4F112379F0B5E1CB1AD10860
:103FB000D301C20104C0880F991FAA1FBB1FCA9456
:103FC000D2F72081822B0FC025E1C21AD108D3017C
:103FD000C20104C0880F991FAA1FBB1FCA94D2F741
:103FE000809590818923808341E0602F892D0E94F4
:103FF000AF0D83C023701F7386E0D7011D928A9591
:10400000E9F79983822F80618A831B830C83AD82B9
:1040100066E0C7012CA70E94400D66E0C7010E9420
:10402000140D602F812F0E94510D482F50E0B9E0F0
:104030008B9FC00111248E509B4FFC01E455FF4F14
:1040400030813C7F2CA5232B208331962A2D2F777E
:10405000208331968081A7FE02C0806201C08F7DDF
:10406000808389E0849FF001859FF00D1124EC5539
:10407000FA4F80818F3F09F440C08F5F80833DC03D
:104080008C8300E021E0A70160E470E089E090E02B
:1040900032C0009163042091E4044091E3046091F4
:1040A000E2048091E1040E94DA0880912F060E94C8
:1040B000AC0823C019821A821B8200E02091E4041C
:1040C0004091E3046091E2048091E1040E94DA08E7
:1040D0008C8320E0A70161E570E088E090E00BC0F0
:1040E00081E6898382E88A8300E021E0A70160E419
:1040F00070E087E090E00E9429060E94020E8BEC9F
:1041000094E00E94D3170AE114E0D12C1C821B8298
:1041100028EE33E040E050E02D833E834F83588704
:1041200044E351E05A834983DD86D8012D913D91C6
:104130008D018091CF049091D0042817390739F56B
:10414000C7010E94F216873111F08C3101F5C701C9
:104150000E94A816892BD9F08B819C819E8B8D8B18
:104160008D819E81AF81B8858F8B988FA98FBA8FF3
:1041700089859A85AB85BC858B8F9C8FAD8FBE8FD3
:10418000E4E3F1E0FC8BEB8B8D858F8F13C0D39430
:10419000F4E0DF12BBCF1E8A1D8A28EE33E040E038
:1041A00050E02F8B388F498F5A8F44E351E05C8B5E
:1041B0004B8BDF8E8F8D843009F414C21FA21EA298
:1041C00019A618A61BA61AA64AE0B70182E390E03A
:1041D0000E94A626B701CE0186960E945B12DD24BE
:1041E000D394CE0143960E946717882309F4F2C145
:1041F000CE0143960E94A816892B99F3CE014396CF
:104200000E948E16C82E0AA51BA502331105B0F414
:1042100089831A820F5F1F4FB801CE0186960E94D4
:104220000912882359F02EA13FA18AA59BA5B701A9
:10423000820F931F0E945E261BA70AA75AE0C51291
:10424000C3C1DD2061F262ED71E0CE0143960E94B0
:10425000841362EE71E0CE0143960E9484136AEFEC
:1042600071E0CE0143960E94DC126DEF71E0CE0149
:1042700043960E94841369E272E0CE0143960E9445
:1042800084136CE372E0C7010E94811240E050E0A9
:10429000B701CE0186960E94EC118C01C7010E94E5
:1042A0007C1217FD2EC16EE372E0CE0143960E9490
:1042B00084136CE572E0C7010E948112A801B70166
:1042C000CE0186960E94EC116C01C7010E947C12FF
:1042D00096013327A8014D5F5F4FBE016A5D7F4F96
:1042E000CE0180960E9496126EE572E0C7010E9490
:1042F000811240E050E0B701CE0180960E94EC119F
:104300008C01C7010E947C1211272CA13DA1A8019C
:104310004B5F5F4FBE01605E7F4FC7010E949612E8
:10432000C7010E94E111962E60932204C7010E94EA
:104330007C1264E672E0C7010E94811240E050E006
:10434000B701CE0180960E94EC115C01C7010E946A
:104350007C12BB24A5014A5F5F4F9801BE01605EDD
:104360007F4FC7010E949612C7010E94E11160931E
:104370000101C7010E947C126BE672E0C7010E9436
:10438000811240E050E0B701CE0180960E94EC110E
:104390006C01C7010E947C12DD246FE672E0C70148
:1043A0000E948112A601B701CE0180960E94EC11F5
:1043B0008C01C7010E947C12112763E772E0C701DC
:1043C0000E948112A801B701CE0180960E94EC11D3
:1043D0001C01C7010E947C123324A1014D5F5F4F75
:1043E0009501BE01605E7F4FC7010E949612C70112
:1043F0000E94E111A62EC7010E947C12A8014D5F08
:104400005F4F9101BE01605E7F4FC7010E9496120F
:10441000C7010E94E111B62EC7010E947C12A601BD
:104420004D5F5F4F9801BE01605E7F4FC7010E94E4
:104430009612C7010E94E111162FC7010E947C123B
:10444000960140E050E0BE01605E7F4FC7010E94D0
:104450009612C7010E94E111062FC7010E947C122B
:104460000093EE041093EF04B092F004A092F104D4
:1044700086E290E00E948E05891539F0692D86E26A
:1044800090E00E948C050E940F068DE290E00E9451
:104490008E0560910101861721F08DE290E00E9467
:1044A0008C0588E290E00E948E05801729F0602F2D
:1044B00088E290E00E948C0589E290E00E948E05DF
:1044C000811729F0612F89E290E00E948C058AE231
:1044D00090E00E948E058B1529F06B2D8AE290E00A
:1044E0000E948C058BE290E00E948E058A1529F0CF
:1044F0006A2D8BE290E00E948C05CE0180960E948E
:104500007C1267E772E0CE0143960E94DC12609154
:10451000EE04CE0143960E94930C61EC72E0CE0152
:1045200043960E94DC126091EF04CE0143960E94F4
:10453000930C62EF72E0CE0143960E94DC12609110
:10454000F004CE0143960E94930C63E273E0CE0127
:1045500043960E94DC126091F104CE0143960E94C2
:10456000930C64E573E0CE0143960E94DC12409107
:10457000010150E060E070E02AE0CE0143960E9425
:10458000F11268E973E0CE0143960E94DC1240917B
:10459000220450E060E070E02AE0CE0143960E94E1
:1045A000F1126FED73E0CE0143960E9484136DEE1D
:1045B00073E0CE0143960E94841368E074E0CE015C
:1045C00043960E94841306C06DE0C61609F409CE16
:1045D000D12C07CECE0143960E948B17CE01869632
:1045E0000E947C120E94CA070E946714009169040D
:1045F00010916A0420916B0430916C045B016C0192
:10460000A01AB10AC20AD30A41EDA41647E0B406C3
:10461000C104D10440F480E090E0892B09F48FC8F4
:104620000E9400008CC86093690470936A048093B0
:104630006B0490936C0408E214E0D12CF8013297DB
:104640008081882351F0D8018C91882319F0815002
:104650008C9303C08D2D0E943E090A5F1F4FD39497
:10466000BAE0DB12EBCFD7CF609101018DE290E091
:104670000E948C056091EE0488E290E00E948C0517
:104680006091EF0489E290E00E948C056091F00453
:104690008AE290E00E948C056091F1048BE290E048
:1046A0000E948C050C94F31A8AEC91E090933706E3
:1046B00080933606109238061092390610923A0608
:1046C00010923B0690933D0680933C0610923E0666
:1046D00010923F06109240061092410690934306B6
:1046E00080934206109244061092450610924606A8
:1046F00010924706909349068093480610924A0606
:1047000010924B0610924C0610924D0690934F0655
:1047100080934E0610925006109251061092520647
:10472000109253069093BE048093BD041092BF0470
:104730001092C0041092C1041092C2049093C60457
:104740008093C5041092C7041092C8041092C90443
:104750001092CA0490935506809354061092560600
:104760001092570610925806109259068FEF8093B8
:104770002F0680E090E0FC01EE50FB4F128E20E00F
:1047800030E0DF01A20FB31F5B961C922F5F3F4FFB
:1047900028303105B1F709968039910561F71092FB
:1047A000F20482EF94E02FEFFC01E655FF4F2083E7
:1047B0003196208331962083319620833196208351
:1047C0003196208331962083319620833196108252
:1047D000099635E08937930739F71092240610922D
:1047E0002306109226061092250610922806109293
:1047F000270610922E0610922D0610920B058AECB9
:1048000091E090935B0680935A0610925C0610929A
:104810005D0610925E0610925F069093ED04809301
:10482000EC0420EC2093EE0428EA2093EF0422EB22
:104830002093F0042EED2093F1041092D4041092F2
:10484000D30448EE53E060E070E04093D504509309
:10485000D6046093D7047093D80424EA31E03093EF
:10486000D2042093D1049093E0048093DF0410924B
:10487000E1041092E2041092E3041092E40484E054
:104880008093E9041092CE041092CD048EE591E05D
:104890009093CC048093CB0480E590E09093D00477
:1048A0008093CF040895EE0FFF1F0590F491E02D43
:1048B0000994CF93DF938230910510F482E090E069
:1048C000E0916E06F0916F0620E030E0C0E0D0E0AD
:1048D000309711F14081518148175907C0F04817AE
:1048E000590761F482819381209719F09B838A8311
:1048F0002BC090936F0680936E0626C0211531055C
:1049000019F04217530718F49A01BE01DF01EF01B5
:104910000280F381E02DDCCF2115310509F1281B40
:10492000390B2430310590F412968D919C91139798
:104930006115710521F0FB019383828304C090937C
:104940006F0680936E06FD01329644C0FD01E20FB2
:10495000F31F81939193225031092D933C933AC0D8
:1049600020916C0630916D06232B41F420910C01AF
:1049700030910D0130936D0620936C0620910A0151
:1049800030910B012115310541F42DB73EB740910F
:104990000E0150910F01241B350BE0916C06F09134
:1049A0006D06E217F307A0F42E1B3F0B28173907FB
:1049B00078F0AC014E5F5F4F2417350748F04E0F7B
:1049C0005F1F50936D0640936C068193919302C0D4
:1049D000E0E0F0E0CF01DF91CF9108950F931F93B6
:1049E000CF93DF93009709F48CC0FC0132971382B8
:1049F000128200916E0610916F060115110581F467
:104A000020813181820F931F20916C0630916D06B9
:104A10002817390779F5F0936D06E0936C0671C09D
:104A2000D80140E050E0AE17BF0750F412962D9128
:104A30003C911397AD012115310509F1D901F3CF4F
:104A40009D01DA013383228360817181860F971F74
:104A50008217930769F4EC0128813981260F371FEB
:104A60002E5F3F4F318320838A819B819383828392
:104A7000452B29F4F0936F06E0936E0642C013961F
:104A8000FC93EE931297ED01499159919E01240FE9
:104A9000351FE217F30771F480819181840F951F10
:104AA000029611969C938E938281938113969C9388
:104AB0008E931297E0E0F0E0D80112968D919C91D0
:104AC0001397009719F0F8018C01F6CF8D919C9106
:104AD00098012E5F3F4F820F931F20916C063091FB
:104AE0006D062817390769F4309729F410926F067C
:104AF00010926E0602C01382128210936D0600930C
:104B00006C06DF91CF911F910F910895A0E0B0E066
:104B1000ECE8F5E20C940A27EC01009721F4CB01B4
:104B20000E945924B8C0FC01E60FF71F9C012250D7
:104B30003109E217F30708F4ACC0D9010D911C91BB
:104B4000119706171707B0F00530110508F49FC03C
:104B5000C80104978617970708F499C002501109F5
:104B6000061B170B019311936D937C93CF010E9449
:104B7000EE248DC05B01A01AB10A4C01800E911E7B
:104B8000A0916E06B0916F0640E050E0E12CF12C50
:104B9000109709F44AC0A815B905D1F56D907C901D
:104BA0001197630182E0C80ED11CCA14DB0480F1A6
:104BB000A3014A195B096A0182E0C80ED11C129652
:104BC000BC9012971396AC91B5E0CB16D10440F08F
:104BD000B282A38351834083D9016D937C930AC031
:104BE0000E5F1F4FC301800F911FF90191838083D6
:104BF000EB2DFA2FE114F10431F0D7011396FC9359
:104C0000EE93129744C0F0936F06E0936E063FC098
:104C10008D919C9111974817590708F4AC017D01BB
:104C200012960D90BC91A02DB3CF80916C069091FF
:104C30006D0688159905E1F446175707C8F4809169
:104C40000A0190910B01009741F48DB79EB74091F6
:104C50000E0150910F01841B950BE817F907C8F45A
:104C6000F0936D06E0936C06F901718360830FC0C9
:104C7000CB010E9459247C01009759F0A801BE0184
:104C80000E945526CE010E94EE24C70104C0CE0129
:104C900002C080E090E0CDB7DEB7EEE00C942627AE
:104CA00081E090E0F8940C945F27FB01DC0102C0E6
:104CB00001900D9241505040D8F70895FB01DC015E
:104CC00001900D920020E1F70895FB0151915523C9
:104CD000A9F0BF01DC014D9145174111E1F759F4ED
:104CE000CD010190002049F04D9140154111C9F3CB
:104CF000FB014111EFCF81E090E0019708951F93F0
:104D0000FC0199278827BC01E89411911032E9F33E
:104D1000193010F01E30C8F31B3251F01D3249F427
:104D2000689406C00E94B126610F711D811D911DFE
:104D3000119110531A30B0F33EF490958095709510
:104D400061957F4F8F4F9F4F1F910895BB274A302A
:104D500031F4992322F4BDE2909581959F4F0C94F4
:104D6000C726592F482F372F262F660F771F881FEA
:104D7000991F660F771F881F991F620F731F841F6B
:104D8000951F660F771F881F991F0895BB27FB018A
:104D90005527AA27880F991FAA1FA41710F0A41B34
:104DA00083955051B9F7A05DAA3308F0A95DA1938E
:104DB000009779F7B111B1931192CB010C94E026D1
:104DC000DC01FC01672F71917723E1F7329704C072
:104DD0007C916D9370836291AE17BF07C8F30895FD
:104DE000F999FECF92BD81BDF89A992780B50895B3
:104DF000262FF999FECF1FBA92BD81BD20BD0FB6F7
:104E0000F894FA9AF99A0FBE019608952F923F925C
:104E10004F925F926F927F928F929F92AF92BF92CA
:104E2000CF92DF92EF92FF920F931F93CF93DF9376
:104E3000CDB7DEB7CA1BDB0B0FB6F894DEBF0FBED3
:104E4000CDBF09942A88398848885F846E847D8420
:104E50008C849B84AA84B984C884DF80EE80FD8022
:104E60000C811B81AA81B981CE0FD11D0FB6F89498
:104E7000DEBF0FBECDBFED010895A1E21A2EAA1B21
:104E8000BB1BFD010DC0AA1FBB1FEE1FFF1FA217FA
:104E9000B307E407F50720F0A21BB30BE40BF50BF7
:104EA000661F771F881F991F1A9469F76095709580
:104EB000809590959B01AC01BD01CF010895F894B8
:024EC000FFCF22
:104EC200301E00C0842BBCEFFEED00007006800097
:104ED2000100000000000000DF11DF11DF11DF110F
:104EE200DF11DF11DF11DF11DF11DF11DF11DF1140
:104EF200000000008C009A01A8168E166716241670
:104F02000E0219058A168B1767171C16AE00AC0025
:104F12001116A20001005E00000000000000FB1557
:104F22004E18FA1600000000DF11DF11DF11DF1149
:104F3200DF11DF11DF11DF11DF11DF11DF11DF11EF
:104F4200DF11DF11DF11DF1100000000DF11661138
:104F5200DF11DF11DF11DF1100000000DF11661128
:104F6200000000004D096B0ADC15AA0B520A4C091D
:104F72003A1625169B09A30A6309D30B8B0BF4156A
:104F8200E415E015DB09000000003A130000000000
:104F9200DF11485454502F312E3120323030204FFF
:104FA2004B00436F6E74656E742D547970653A20B0
:104FB200746578742F68746D6C000D0A003C687417
:104FC2006D6C3E3C686561643E3C7469746C653E20
:104FD2005A32313C2F7469746C653E3C2F686561AE
:104FE200643E3C626F64793E003C68313E5A323125
:104FF2003C2F68313E3C6272202F3E003F002D3E26
:1050020020616363657074206368616E6765206107
:105012006674657220524553455421002000265380
:1050220038383D0026584E65743D0026423D002624
:10503200433D0026443D003C666F726D206D6574F1
:10504200686F643D6765743E49502D4164722E3A23
:10505200203C696E70757420747970653D6E756D53
:10506200626572206D696E3D3130206D61783D322E
:105072003534206E616D653D412076616C75653D0C
:10508200003E2E3C696E70757420747970653D6EB9
:10509200756D626572206D696E3D30206D61783D7F
:1050A200323534206E616D653D422076616C7565E6
:1050B2003D003E2E3C696E70757420747970653DBA
:1050C2006E756D626572206D696E3D30206D61781E
:1050D2003D323534206E616D653D432076616C75DD
:1050E200653D003E2E3C696E707574207479706562
:1050F2003D6E756D626572206D696E3D30206D6129
:10510200783D323534206E616D653D442076616CA8
:1051120075653D003E3C6272202F3E2058427573F9
:10512200204164722E3A203C696E70757420747945
:1051320070653D6E756D626572206D696E3D3120E0
:105142006D61783D3331206E616D653D584E6574F9
:105152002076616C75653D003E3C6272202F3E20D8
:10516200533838203878204D6F64756C653A203C8E
:10517200696E70757420747970653D6E756D6265C7
:1051820072206D696E3D30206D61783D3632206E41
:10519200616D653D5338382076616C75653D003E22
:1051A2003C6272202F3E3C6272202F3E003C696EB0
:1051B20070757420747970653D7375626D69743EA3
:1051C2003C2F666F726D3E003C2F626F64793E3CED
:0851D2002F68746D6C3E0000B3
:00000001FF
